{
  "contractName": "Airbud",
  "abi": [
    {
      "inputs": [
        {
          "internalType": "address",
          "name": "",
          "type": "address"
        }
      ],
      "name": "balances",
      "outputs": [
        {
          "internalType": "uint256",
          "name": "",
          "type": "uint256"
        }
      ],
      "stateMutability": "view",
      "type": "function"
    },
    {
      "inputs": [],
      "name": "yelp",
      "outputs": [],
      "stateMutability": "payable",
      "type": "function"
    }
  ],
  "bytecode": "0x608060405234801561001057600080fd5b506101bb806100206000396000f3fe6080604052600436106100295760003560e01c806303976cd41461002e57806327e235e314610038575b600080fd5b610036610075565b005b34801561004457600080fd5b5061005f600480360381019061005a91906100d6565b6100a9565b60405161006c9190610112565b60405180910390f35b600033905060006040518060600160405280600160ff168152602001600260ff168152602001600360ff1681525090505050565b60016020528060005260406000206000915090505481565b6000813590506100d08161016e565b92915050565b6000602082840312156100ec576100eb610169565b5b60006100fa848285016100c1565b91505092915050565b61010c8161015f565b82525050565b60006020820190506101276000830184610103565b92915050565b60006101388261013f565b9050919050565b600073ffffffffffffffffffffffffffffffffffffffff82169050919050565b6000819050919050565b600080fd5b6101778161012d565b811461018257600080fd5b5056fea26469706673582212203e7d1af61fd5b8c9bd6b54c67560717e3bfa6adc3d35fb3cf2bc45389188b92464736f6c63430008060033",
  "immutableReferences": {},
  "source": "// SPDX-License-Identifier: MIT\r\npragma solidity >=0.4.22 <0.9.0;\r\n\r\ncontract Airbud {\r\n    // state variables forced to state\r\n    address[] users;\r\n    mapping(address => uint) public balances;\r\n\r\n    function yelp() public payable {\r\n        // msg.sender the one who invokes the trx\r\n        // local variable defaults to storage\r\n        address user = msg.sender;\r\n\r\n        uint8[3] memory ids = [1, 2, 3];\r\n    }\r\n\r\n}",
  "sourcePath": "C:\\Users\\cesar\\Documents\\Projects\\blockchain\\mastering_ethereum\\contracts\\Airbud.sol",
  "compiler": {
    "name": "solc",
    "version": "0.8.6+commit.11564f7e.Emscripten.clang"
  },
  "schemaVersion": "3.4.2",
  "updatedAt": "2021-08-09T06:47:26.757Z",
  "devdoc": {
    "kind": "dev",
    "methods": {},
    "version": 1
  },
  "userdoc": {
    "kind": "user",
    "methods": {},
    "version": 1
  }
}