{
  "contractName": "BugSquash",
  "abi": [
    {
      "inputs": [],
      "stateMutability": "nonpayable",
      "type": "constructor"
    },
    {
      "inputs": [],
      "name": "squash",
      "outputs": [],
      "stateMutability": "nonpayable",
      "type": "function"
    },
    {
      "inputs": [],
      "name": "kill",
      "outputs": [],
      "stateMutability": "nonpayable",
      "type": "function"
    }
  ],
  "bytecode": "0x608060405234801561001057600080fd5b5060008060006101000a81548160ff0219169083600181111561003657610035610081565b5b021790555033600060016101000a81548173ffffffffffffffffffffffffffffffffffffffff021916908373ffffffffffffffffffffffffffffffffffffffff1602179055506100b0565b7f4e487b7100000000000000000000000000000000000000000000000000000000600052602160045260246000fd5b610282806100bf6000396000f3fe608060405234801561001057600080fd5b50600436106100365760003560e01c806327746dbd1461003b57806341c0e1b514610045575b600080fd5b61004361004f565b005b61004d610159565b005b600073ffffffffffffffffffffffffffffffffffffffff16600060019054906101000a900473ffffffffffffffffffffffffffffffffffffffff1673ffffffffffffffffffffffffffffffffffffffff1614156100af576100ae6101ee565b5b600060018111156100c3576100c261021d565b5b60008054906101000a900460ff1660018111156100e3576100e261021d565b5b14156101185760016000806101000a81548160ff0219169083600181111561010e5761010d61021d565b5b0217905550610157565b60018081111561012b5761012a61021d565b5b60008054906101000a900460ff16600181111561014b5761014a61021d565b5b141561015657600080fd5b5b565b3373ffffffffffffffffffffffffffffffffffffffff16600060019054906101000a900473ffffffffffffffffffffffffffffffffffffffff1673ffffffffffffffffffffffffffffffffffffffff16146101b357600080fd5b600060019054906101000a900473ffffffffffffffffffffffffffffffffffffffff1673ffffffffffffffffffffffffffffffffffffffff16ff5b7f4e487b7100000000000000000000000000000000000000000000000000000000600052600160045260246000fd5b7f4e487b7100000000000000000000000000000000000000000000000000000000600052602160045260246000fdfea2646970667358221220e9f7b970d6ce5389a8bd66dfaa072252d64e30d27959de395b491bf1945a569d64736f6c63430008060033",
  "immutableReferences": {},
  "source": "// SPDX-License-Identifier: MIT\r\npragma solidity >=0.4.22 <0.9.0;\r\n\r\ncontract BugSquash {\r\n    enum State {\r\n        Alive,\r\n        Squashed\r\n    }\r\n\r\n    State state;\r\n    address payable owner;\r\n\r\n    constructor() {\r\n        state = State.Alive;\r\n        owner = payable(msg.sender);\r\n    }\r\n\r\n    function squash() public {\r\n        assert(owner != address(0));\r\n\r\n        if (state == State.Alive) {\r\n            state = State.Squashed;\r\n        } else if (state == State.Squashed) {\r\n            revert();\r\n        }\r\n    }\r\n\r\n    function kill() public {\r\n        require(owner == msg.sender);\r\n        selfdestruct(owner);\r\n    }\r\n}",
  "sourcePath": "C:\\Users\\cesar\\Documents\\Projects\\blockchain\\mastering_ethereum\\contracts\\BugSquash.sol",
  "compiler": {
    "name": "solc",
    "version": "0.8.6+commit.11564f7e.Emscripten.clang"
  },
  "schemaVersion": "3.4.2",
  "updatedAt": "2021-08-09T06:47:26.765Z",
  "devdoc": {
    "kind": "dev",
    "methods": {},
    "version": 1
  },
  "userdoc": {
    "kind": "user",
    "methods": {},
    "version": 1
  }
}