{
  "contractName": "EtherStore",
  "abi": [
    {
      "inputs": [
        {
          "internalType": "address",
          "name": "",
          "type": "address"
        }
      ],
      "name": "balances",
      "outputs": [
        {
          "internalType": "uint256",
          "name": "",
          "type": "uint256"
        }
      ],
      "stateMutability": "view",
      "type": "function"
    },
    {
      "inputs": [
        {
          "internalType": "address",
          "name": "",
          "type": "address"
        }
      ],
      "name": "lastWithdrawTime",
      "outputs": [
        {
          "internalType": "uint256",
          "name": "",
          "type": "uint256"
        }
      ],
      "stateMutability": "view",
      "type": "function"
    },
    {
      "inputs": [],
      "name": "withdrawalLimit",
      "outputs": [
        {
          "internalType": "uint256",
          "name": "",
          "type": "uint256"
        }
      ],
      "stateMutability": "view",
      "type": "function"
    },
    {
      "inputs": [],
      "name": "depositFunds",
      "outputs": [],
      "stateMutability": "payable",
      "type": "function"
    },
    {
      "inputs": [
        {
          "internalType": "uint256",
          "name": "weiToWithdraw",
          "type": "uint256"
        }
      ],
      "name": "withdrawFunds",
      "outputs": [],
      "stateMutability": "nonpayable",
      "type": "function"
    }
  ],
  "bytecode": "0x6080604052670de0b6b3a764000060005534801561001c57600080fd5b5061055a8061002c6000396000f3fe60806040526004361061004a5760003560e01c80631031ec311461004f578063155dd5ee1461008c57806327e235e3146100b55780637ddfe78d146100f2578063e2c41dbc1461011d575b600080fd5b34801561005b57600080fd5b5061007660048036038101906100719190610378565b610127565b60405161008391906103e1565b60405180910390f35b34801561009857600080fd5b506100b360048036038101906100ae91906103a5565b61013f565b005b3480156100c157600080fd5b506100dc60048036038101906100d79190610378565b6102d8565b6040516100e991906103e1565b60405180910390f35b3480156100fe57600080fd5b506101076102f0565b60405161011491906103e1565b60405180910390f35b6101256102f6565b005b60016020528060005260406000206000915090505481565b80600260003373ffffffffffffffffffffffffffffffffffffffff1673ffffffffffffffffffffffffffffffffffffffff16815260200190815260200160002054101561018b57600080fd5b60005481111561019a57600080fd5b62093a80600160003373ffffffffffffffffffffffffffffffffffffffff1673ffffffffffffffffffffffffffffffffffffffff168152602001908152602001600020546101e891906103fc565b4210156101f457600080fd5b80600260003373ffffffffffffffffffffffffffffffffffffffff1673ffffffffffffffffffffffffffffffffffffffff16815260200190815260200160002060008282546102439190610452565b9250508190555042600160003373ffffffffffffffffffffffffffffffffffffffff1673ffffffffffffffffffffffffffffffffffffffff168152602001908152602001600020819055503373ffffffffffffffffffffffffffffffffffffffff166108fc829081150290604051600060405180830381858888f193505050501580156102d4573d6000803e3d6000fd5b5050565b60026020528060005260406000206000915090505481565b60005481565b34600260003373ffffffffffffffffffffffffffffffffffffffff1673ffffffffffffffffffffffffffffffffffffffff168152602001908152602001600020600082825461034591906103fc565b92505081905550565b60008135905061035d816104f6565b92915050565b6000813590506103728161050d565b92915050565b60006020828403121561038e5761038d6104f1565b5b600061039c8482850161034e565b91505092915050565b6000602082840312156103bb576103ba6104f1565b5b60006103c984828501610363565b91505092915050565b6103db816104b8565b82525050565b60006020820190506103f660008301846103d2565b92915050565b6000610407826104b8565b9150610412836104b8565b9250827fffffffffffffffffffffffffffffffffffffffffffffffffffffffffffffffff03821115610447576104466104c2565b5b828201905092915050565b600061045d826104b8565b9150610468836104b8565b92508282101561047b5761047a6104c2565b5b828203905092915050565b600061049182610498565b9050919050565b600073ffffffffffffffffffffffffffffffffffffffff82169050919050565b6000819050919050565b7f4e487b7100000000000000000000000000000000000000000000000000000000600052601160045260246000fd5b600080fd5b6104ff81610486565b811461050a57600080fd5b50565b610516816104b8565b811461052157600080fd5b5056fea2646970667358221220ebc68149110d2c3d1ca32695f0bc57d60a3f873f0e762390732c268ebbcf99b164736f6c63430008060033",
  "immutableReferences": {},
  "source": "// SPDX-License-Identifier: MIT\r\npragma solidity >=0.4.22 <0.9.0;\r\n\r\ncontract EtherStore {\r\n    uint public withdrawalLimit = 1 ether;\r\n    mapping(address => uint) public lastWithdrawTime;\r\n    mapping(address => uint) public balances;\r\n\r\n    function depositFunds() public payable {\r\n        balances[msg.sender] += msg.value;\r\n    }\r\n\r\n    function withdrawFunds(uint weiToWithdraw) public {\r\n        // check you have enough money to retrieve\r\n        require(balances[msg.sender] >= weiToWithdraw);\r\n        // check the maximum you can withdraw\r\n        require(weiToWithdraw <= withdrawalLimit);\r\n        // just one withdrawal per week\r\n        require(block.timestamp >= lastWithdrawTime[msg.sender] + 1 weeks);\r\n        \r\n        balances[msg.sender] -= weiToWithdraw;\r\n        lastWithdrawTime[msg.sender] = block.timestamp;\r\n\r\n        payable(msg.sender).transfer(weiToWithdraw);\r\n    }\r\n}",
  "sourcePath": "C:\\Users\\cesar\\Documents\\Projects\\blockchain\\mastering_ethereum\\contracts\\EtherStore.sol",
  "compiler": {
    "name": "solc",
    "version": "0.8.6+commit.11564f7e.Emscripten.clang"
  },
  "schemaVersion": "3.4.2",
  "updatedAt": "2021-08-08T20:04:03.136Z",
  "devdoc": {
    "kind": "dev",
    "methods": {},
    "version": 1
  },
  "userdoc": {
    "kind": "user",
    "methods": {},
    "version": 1
  }
}