{
  "contractName": "NotSoPrivateData",
  "abi": [
    {
      "inputs": [],
      "name": "lives",
      "outputs": [
        {
          "internalType": "uint256",
          "name": "",
          "type": "uint256"
        }
      ],
      "stateMutability": "view",
      "type": "function",
      "constant": true
    },
    {
      "inputs": [],
      "name": "money",
      "outputs": [
        {
          "internalType": "uint256",
          "name": "",
          "type": "uint256"
        }
      ],
      "stateMutability": "view",
      "type": "function",
      "constant": true
    }
  ],
  "bytecode": "0x608060405260106000556040518060400160405280600481526020017f656173790000000000000000000000000000000000000000000000000000000081525060019080519060200190610054929190610067565b5034801561006157600080fd5b5061016b565b8280546100739061010a565b90600052602060002090601f01602090048101928261009557600085556100dc565b82601f106100ae57805160ff19168380011785556100dc565b828001600101855582156100dc579182015b828111156100db5782518255916020019190600101906100c0565b5b5090506100e991906100ed565b5090565b5b808211156101065760008160009055506001016100ee565b5090565b6000600282049050600182168061012257607f821691505b602082108114156101365761013561013c565b5b50919050565b7f4e487b7100000000000000000000000000000000000000000000000000000000600052602260045260246000fd5b60dc806101796000396000f3fe6080604052348015600f57600080fd5b506004361060325760003560e01c80634ddd108a146037578063e6f54891146051575b600080fd5b603d606b565b604051604891906083565b60405180910390f35b60576071565b604051606291906083565b60405180910390f35b60005481565b606481565b607d81609c565b82525050565b6000602082019050609660008301846076565b92915050565b600081905091905056fea26469706673582212201fa75233a7b3d85b458c613fe053b31d464a64ef259236daed9ca43cd6b39dfd64736f6c63430008060033",
  "immutableReferences": {},
  "source": "// SPDX-License-Identifier: MIT\r\npragma solidity >=0.4.22 <0.9.0;\r\n\r\ncontract NotSoPrivateData {\r\n    uint public money = 16;\r\n    uint public constant lives = 100;\r\n    string private password = \"easy\";\r\n}",
  "sourcePath": "C:\\Users\\cesar\\Documents\\Projects\\blockchain\\mastering_ethereum\\contracts\\NotSoPrivateData.sol",
  "compiler": {
    "name": "solc",
    "version": "0.8.6+commit.11564f7e.Emscripten.clang"
  },
  "schemaVersion": "3.4.2",
  "updatedAt": "2021-08-09T06:47:37.474Z",
  "networkType": "ethereum",
  "devdoc": {
    "kind": "dev",
    "methods": {},
    "version": 1
  },
  "userdoc": {
    "kind": "user",
    "methods": {},
    "version": 1
  }
}