{
  "contractName": "SimpleContract",
  "abi": [
    {
      "inputs": [
        {
          "internalType": "uint256",
          "name": "value",
          "type": "uint256"
        }
      ],
      "name": "setVar",
      "outputs": [],
      "stateMutability": "nonpayable",
      "type": "function"
    }
  ],
  "bytecode": "0x608060405234801561001057600080fd5b5060e38061001f6000396000f3fe6080604052348015600f57600080fd5b506004361060285760003560e01c80633a885d7914602d575b600080fd5b60436004803603810190603f91906062565b6045565b005b8060008190555050565b600081359050605c816099565b92915050565b60006020828403121560755760746094565b5b6000608184828501604f565b91505092915050565b6000819050919050565b600080fd5b60a081608a565b811460aa57600080fd5b5056fea26469706673582212207d3aaa5e243133f56d891bf4a26177e379676efc226e82ebbef15ac3b3240c4e64736f6c63430008060033",
  "immutableReferences": {},
  "source": "// SPDX-License-Identifier: MIT\r\npragma solidity >=0.4.22 <0.9.0;\r\n\r\ncontract SimpleContract {\r\n    uint256 _var;\r\n\r\n    function setVar(uint256 value) public {\r\n        _var = value;\r\n    }\r\n}",
  "sourcePath": "C:\\Users\\cesar\\Documents\\Projects\\blockchain\\mastering_ethereum\\contracts\\SimpleContract.sol",
  "compiler": {
    "name": "solc",
    "version": "0.8.6+commit.11564f7e.Emscripten.clang"
  },
  "schemaVersion": "3.4.2",
  "updatedAt": "2021-08-05T17:06:59.644Z",
  "devdoc": {
    "kind": "dev",
    "methods": {},
    "version": 1
  },
  "userdoc": {
    "kind": "user",
    "methods": {},
    "version": 1
  }
}