{
  "contractName": "TimedPayout",
  "abi": [
    {
      "inputs": [],
      "stateMutability": "nonpayable",
      "type": "constructor"
    },
    {
      "inputs": [],
      "name": "claim",
      "outputs": [],
      "stateMutability": "nonpayable",
      "type": "function"
    }
  ],
  "bytecode": "0x608060405234801561001057600080fd5b5042600081905550610161806100276000396000f3fe608060405234801561001057600080fd5b506004361061002b5760003560e01c80634e71d92d14610030575b600080fd5b61003861003a565b005b620d2f0060005461004b919061009c565b42111561009a573373ffffffffffffffffffffffffffffffffffffffff166108fc479081150290604051600060405180830381858888f19350505050158015610098573d6000803e3d6000fd5b505b565b60006100a7826100f2565b91506100b2836100f2565b9250827fffffffffffffffffffffffffffffffffffffffffffffffffffffffffffffffff038211156100e7576100e66100fc565b5b828201905092915050565b6000819050919050565b7f4e487b7100000000000000000000000000000000000000000000000000000000600052601160045260246000fdfea2646970667358221220bf36a4b732c54123546d06a032d538865224f76140e4555e9d7e749059c9ee8b64736f6c63430008060033",
  "immutableReferences": {},
  "source": "// SPDX-License-Identifier: MIT\r\npragma solidity >=0.4.22 <0.9.0;\r\n\r\ncontract TimedPayout {\r\n    uint start;\r\n\r\n    constructor() {\r\n        start = block.timestamp;\r\n    }\r\n\r\n    function claim() public {\r\n        if (block.timestamp > start + 10 days) {\r\n            // address(this) = address of the current contract\r\n            // can use this.balance as an alias\r\n            payable(msg.sender).transfer(address(this).balance);\r\n        }\r\n    }\r\n}",
  "sourcePath": "C:\\Users\\cesar\\Documents\\Projects\\blockchain\\mastering_ethereum\\contracts\\TimedPayout.sol",
  "compiler": {
    "name": "solc",
    "version": "0.8.6+commit.11564f7e.Emscripten.clang"
  },
  "schemaVersion": "3.4.2",
  "updatedAt": "2021-08-09T06:47:26.798Z",
  "devdoc": {
    "kind": "dev",
    "methods": {},
    "version": 1
  },
  "userdoc": {
    "kind": "user",
    "methods": {},
    "version": 1
  }
}